:100000000C94D8010C94F5010C94F5010C94F501B5
:100010000C94F5010C94F5010C94F5010C94F50188
:100020000C94F5010C94F5010C94C41F0C949820C9
:100030000C94A81A0C94F5010C94F5010C94F5019C
:100040000C94F5010C94F5010C94F5010C94F50158
:100050000C94F5010C942F1B0C94F5010C94F501F4
:100060000C94F5010C94F5010C94F5010C94F50138
:100070000C94F5010C94F5010C94F5010C94F50128
:100080000C94F5010C94F5010C94F5010C94F50118
:100090000C94F5010C94F5010C94F5010C94F50108
:1000A0000C94F5010C94F5010C94F50135001E003B
:1000B0001F0020002100220023002400250026002C
:1000C00027002D002E002A002B0014001A00080023
:1000D000150017001C0018000C00120013002F0060
:1000E00030003100390004001600070009000A0042
:1000F0000B000D000E000F0033003400000028003C
:10010000E1001D001B000600190005001100100091
:1001100036003700380000000000E500E000E30092
:10012000E200000000002C00000000000000E600DB
:10013000E70065000000E400FFAA7F5540000101D0
:100140000101010101010102020202020202020296
:100150000303030303030303040404040404040566
:10016000050505050606060606070707070708082A
:100170000808090909090A0A0A0B0B0B0C0C0C0DDB
:100180000D0D0E0E0E0F0F0F101011111112121374
:10019000131414151516161717181819191A1A1BEF
:1001A0001B1C1D1D1E1E1F2020212222232424254E
:1001B0002626272829292A2B2C2D2D2E2F30313287
:1001C00032333435363738393A3B3C3D3E3F404197
:1001D00042434445464748494A4C4D4E4F5051537F
:1001E00054555658595A5B5D5E5F61626465666836
:1001F000696B6C6D6F7072737577787A7B7D7E80BA
:1002000082838587888A8C8E8F91939596989A9C05
:100210009EA0A2A3A5A7A9ABADAFB1B3B5B7BABC19
:10022000BEC0C2C4C6C9CBCDCFD1D4D6D8DBDDDFEA
:10023000E2E4E7E9EBEEF0F3F5F8FAFDFF200368FE
:100240000065006C0069006F00740072006F007040
:100250000065005F00740065007300740000000812
:10026000034D004A004D0000000403090409023B4D
:1002700000020100A0FA09040000010301010009C5
:100280002111010001224000070581030800010936
:10029000040100010300000009211101000122B640
:1002A000000705820320000112010002000000087F
:1002B000EDFE000000010102000105010902A1019B
:1002C00085020901A1000509190129081500250168
:1002D0009508750181020501093009311581257FD5
:1002E00095027508810609381581257F95017508E5
:1002F0008106050C0A38021581257F950175088154
:1003000006C0C005010980A101850319012AB700B3
:10031000150126B700950175108100C0050C090173
:10032000A101850419012AA002150126A002950148
:1003300075108100C005010906A101850605071990
:10034000E029E715002501950875018102050719C7
:100350000029EF1500250195F075018102050819A6
:10036000012905950575019102950175039101C05B
:1003700005010906A101050719E029E71500250176
:10038000950875018102950175088101050719001D
:1003900029FF150026FF009506750881000508193C
:1003A000012905950575019102950175039101C01B
:1003B00011241FBECFEFDAE0DEBFCDBF11E0A0E019
:1003C000B1E0E4E3F6E402C005900D92AE39B10766
:1003D000D9F723E0AEE9B1E001C01D92A338B2071E
:1003E000E1F70E94AE100C9402230C94000081E00F
:1003F000089581E008950E94F901089508950E94EA
:10040000FE010895A5E0B0E0E8E0F2E00C947C2263
:1004100049835A833091A50189819A81311119C08C
:10042000662399F0222389F00E948F07182F682FE6
:1004300089819A810E946B0769817A81812F0E944C
:10044000100E2596E3E00C9498220E947D07182F49
:10045000F3CF0E948F0769817A81F1CFFC01262FAB
:10046000408151816281738184810E9402020895DA
:1004700081E00895CF93DF93EC0160E00E942E02AB
:10048000BE010E94FF01DF91CF9108950E94530F9A
:1004900008950E94570F089508950E9436060E94FD
:1004A0004C022FEF84E39CE0215080409040E1F724
:1004B00000C0000008950E944D020E94531B089541
:1004C0000E944D020E94641B08950F931F93CF93C7
:1004D000DF938C0161E00E942E02EC01B8010E94C2
:1004E000FB01811106C080E0DF91CF911F910F9138
:1004F0000895B801CE010E94D9188823A1F3B8014C
:10050000CE010E94DD16882371F3B801CE010E944E
:100510004B18882341F3B801CE010E942616882388
:1005200011F3F8018281882361F0CB35FDE5DF0707
:1005300001F158F4C115ECE5DE0791F0CF3DDC4543
:1005400091F0C8010E94F701CFCFCD358DE5D807D6
:1005500069F090F0C83ADD45A1F70E946002C3CF70
:100560000E945B02C0CF0E94490CF7CF0E94870B0C
:10057000E8CF0E94910BE5CF0E94950BE2CF0E943D
:10058000841A0E94DC0208950E94E0020E94891AE7
:10059000089508950E94C902089581E008950E9477
:1005A000CD0208950895CF93C82F0E94CA028C2FC0
:1005B0000E94CF02CF91089580E00E94D302089557
:1005C0000E9435190E94D3020895CF930E943519D5
:1005D000C82F8091A0018C1779F0C093A0010E94D0
:1005E000141B6093A1017093A2018093A3019093C7
:1005F000A4018C2F0E94D302CF910895ABE0B0E00C
:10060000E4E0F3E00C947D224F83588769877A8772
:100610008B8761110E94D20A1E821D8285E0FE0135
:100620003796DE01119601900D928A95E1F78C8143
:100630009D81892B61F449815A816B817C818D81F7
:100640009E810E94FB092B96E2E00C9499228981FD
:100650009A8189238F3F79F3CE0101960E94380257
:100660008111E9CFF0CFFC01808191810E94C10707
:100670000895CF93C82F8823B9F08CEF8C0F813A5F
:10068000A8F46C2F80910001909101010E94AA1999
:10069000882329F08C2F0E94920A0E94F30A8C2F43
:1006A0000E948A0A0E94F30ACF91089580E28C0F7B
:1006B000883048F4C77081E001C0880FCA95EAF716
:1006C0000E94B50AEFCFEBE5EC0FE33040F4F0E029
:1006D000E65BFE4F808190E00E946A19E5CFE8E575
:1006E000EC0FE73150F4F0E0EE0FFF1FE45EFE4F39
:1006F000808191810E948019D7CFCD3EA8F28C2FA6
:100700000E9432110E940512CFCF882379F19CEF0D
:10071000980F913A28F40E94920A0E94F30A0895D1
:1007200090E2980F983050F4877091E001C0990FD3
:100730008A95EAF7892F0E94BB0AEFCF9BE5980FB5
:10074000933028F490E080E00E946A19089598E5BB
:10075000980F973128F490E080E00E948019089566
:100760008D3E20F00E948C110E94051208951F9367
:10077000CF93DF93182FEB010E943903209739F4B0
:10078000812F0E948503DF91CF911F9108958FE9FA
:100790009FE00197F1F700C000002197EFCF70E0D4
:1007A00060E0893311F460E570E00E94B7030895BA
:1007B000882321F00E94B50A0E94F30A0895882335
:1007C00021F00E94BB0A0E94F30A0895B0E0A0E065
:1007D000ECEEF3E00C9476226C01D62FC72FFC01CF
:1007E0001281F580F2949FE0F9220E94AB0AE82E74
:1007F0008823B9F0E12E1123A1F08C2F807F803463
:1008000021F080E28D0F8830D0F08091A40282FF29
:1008100016C082E00E94560B0E94AB0A91E0E82EBF
:10082000E926BC2EB2948FE0B822FBE0FB1508F459
:1008300068C0EB2DF0E0EC5FFC4D0C946722E12CDE
:10084000F0CF0C2F0F70C07F11F00295007F1123A5
:1008500099F0002359F080E28D0F883010F0D1110B
:1008600007C0802F0E94B50A0E94F30A8D2F41C055
:10087000802F0E94C50AF8CF8D2F0E948503002388
:1008800009F43FC080E28D0F883010F0D11104C010
:10089000802F0E94BB0A03C0802F0E94CB0A0E94B7
:1008A000F30A2FC00C2F0F70C07FC03211F00295D9
:1008B000007FDD2381F0D13009F463C0112309F4F6
:1008C0006DC0FF2009F463C0F601858180FFCECFA3
:1008D0008F7085835CC08091A40282FD33C0112398
:1008E00059F0002329F0802F0E94B50A0E94F30AD4
:1008F00080E00E94390305C080E00E948503011159
:10090000C7CFEB2DE850FF0B349720F40E94351928
:100910000E94D302EE2089F00E94A70A80FD0DC03C
:10092000F60112820E94A10A0E94C906C6010E9415
:10093000F6050E94A10A0E94D906CDB7DEB7E9E00C
:100940000C949222112389F0F11006C00E94D50A5E
:10095000802B0E94D803D5CF21E0F212F7CF0E945E
:10096000D50A802B0E94DC0ACCCFF11006C00E9471
:10097000E90A802F0E94DF03C4CF31E0F31609F2A9
:10098000F6CF112331F085E08F1508F4BACF802F10
:10099000E0CF94E09F1508F4B4CFEBCFFF2049F3EC
:1009A000D93349F4FFEF27EE33E0F15020403040D7
:1009B000E1F700C000008D2F0E948503A2CF8C2F8D
:1009C00086958695837069F0813009F09ACF8D2FD6
:1009D0009C2F9370111102C090E080E00E9480195A
:1009E00090CF8D2F9C2F9370111102C090E080E06A
:1009F0000E946A1986CF8D2F112329F00E9432118F
:100A00000E9405127ECF0E948C11FACF8C2F83702A
:100A1000A1F5111176CF4D2F429546954770440FA1
:100A2000440F2D2F2F7030E0042E02C0220F331FF1
:100A30000A94E2F790E080E0D4FF09C08FE090E0F4
:100A400002C0880F991F4A95E2F780959095C69548
:100A5000C695C370822B932BC23049F058F4C13035
:100A600019F00E9497064DCF0E948E064ACF0E9431
:100A7000A00647CF0E948B0644CF8695112311F024
:100A80008C2F8170882309F43CCF4D2F42954695D9
:100A90004770440F440F2D2F2F7030E0042E02C0FA
:100AA000220F331F0A94E2F790E080E0D4FF09C0E0
:100AB0008FE090E002C0880F991F4A95E2F7809579
:100AC0009095C695C695C370822B932BC23049F082
:100AD00058F4C13019F00E94040713CF0E94FB069E
:100AE00010CF0E940D070DCF0E94AF060ACFCF7026
:100AF000112329F08C2F0E94C9068D2F2ACF8D2F0C
:100B00000E94DF038C2F0E94D906FBCED23F51F109
:100B100060F4D03FB9F0D13F81F0112309F449C00E
:100B2000F110A4CE8C2F8F7121C0D33F11F1D43F8F
:100B3000A1F78091A40282FD26C08C2F8F71112312
:100B400011F314C0112349F084E08F1508F4D9CEB5
:100B50008C2F8F710E94EB06D4CE95E09F1508F480
:100B6000D0CEF6CF8C2F8F711111CDCF0E94C90638
:100B7000C8CE112329F08C2F8F710E94BD06C1CEE3
:100B80000E94B806BECE112349F0CF718C2F0E946F
:100B9000C90663E08C2F0E94380BB3CE81E00E941F
:100BA000560BE1E0EF1508F0ACCE82E00E94560B48
:100BB000A8CEF110F5CE8C2F8F71A5CF0F931F9378
:100BC000CF93DF93EC01688179818A810E94CC0701
:100BD0008C010E9416070E948A06B801CE010E946D
:100BE000E603DF91CF911F910F910895CF93DF938B
:100BF000EC018B819C81892B29F088819981892343
:100C00008F3F51F4DF91CF910895CE010E94DE0510
:100C1000CE010E943A02F6CFCE010E9465028111F8
:100C2000F4CF0E94AB0A882369F38A81882351F3A9
:100C30008091A40282FFE6CF82E00E94560BE2CFB1
:100C400090E080E00E946A1990E080E00E948019A4
:100C50000E94D20A0E94F30A0E9421120E940512E9
:100C600008950E949A0A0E94200608950E94C20ACE
:100C70000E943106089592959F70963091F058F435
:100C8000925F9F70923058F4803F19F030F4883EA4
:100C900030F481E008959A5FF4CF843FD1F380E08F
:100CA0000895883EB0F3813FD1F7F3CFFC018381F3
:100CB0009481892B29F08081918189238F3F11F4C0
:100CC00080E00895808191810E94C1070E943B06C7
:100CD0000895A5E0B0E0EFE6F6E00C947D222596BD
:100CE000E2E00C949922A6E0B0E0E9E7F6E00C948B
:100CF0007D222696E2E00C94992208950E947D06BA
:100D000008950E947E069093CD018093CC010E94AD
:100D10002006089508950E94810608952091CC012F
:100D20003091CD01822B932B0E9481060895209152
:100D3000CC013091CD01822393230E948106089536
:100D40002091CC013091CD01822793270E9481060A
:100D500008950E947D0608950E94A90608950E94A4
:100D6000AC069093CB018093CA010E94200608959F
:100D700090E080E00E94AF06089521E030E0A901F4
:100D800002C0440F551F8A95E2F7CA010E94AF06C0
:100D9000089521E030E002C0220F331F8A95E2F768
:100DA0008091CA019091CB01822B932B0E94AF06B8
:100DB000089521E030E002C0220F331F8A95E2F748
:100DC000209530958091CA019091CB018223932385
:100DD0000E94AF06089521E030E002C0220F331FC9
:100DE0008A95E2F78091CA019091CB0182279327DF
:100DF0000E94AF0608952091CA013091CB01822B49
:100E0000932B0E94AF0608952091CA013091CB0127
:100E1000822393230E94AF0608952091CA01309146
:100E2000CB01822793270E94AF0608950895262FAD
:100E3000277091E001C0990F2A95EAF723E0769593
:100E400067952A95E1F7660F771F660F771FFA01FE
:100E5000E60FF71F50E040E0682F70E08191DF015E
:100E600011979B01042E02C0369527950A94E2F74C
:100E7000217021952827292328272C934F5F5F4F26
:100E80004430510559F70895A82FA77023E096958F
:100E900087952A95E1F7880F991F880F991FFB0105
:100EA000E80FF91F50E040E080E0219130E00A2E89
:100EB00002C0369527950A94E2F721703327042E55
:100EC00001C0220F0A94EAF7822B4F5F5F4F443034
:100ED000510559F70895262F953070F48E3060F43F
:100EE000682F70E08EE0989F600D711D112446EA16
:100EF00051E0822F0E9417070895292F953068F43A
:100F00008E3058F490E066EA71E03EE0239F800D59
:100F1000911D11240E944407089580E00895B0E0D7
:100F2000A0E0E5E9F7E00C9476227C010091CA018B
:100F30001091CB018091CC019091CD01082B192B00
:100F4000CFE0D0E0CC24C394D12CBC2EC6010C2E13
:100F500002C0880F991F0A94E2F780239123892BFE
:100F600049F4219790F7B12C8B2DCDB7DEB7E9E08E
:100F70000C949222B7018C2F0E942B0E019789F3BB
:100F8000F3CFCF93DF93EC010E948F07BE010E9445
:100F90002B0EDF91CF9108951F93CF93DF93EB0139
:100FA0009091A501992339F0CB010E94C107DF91EF
:100FB000CF911F910895882369F0CB010E948F077C
:100FC000182F682FCE010E946B07BE01812F0E944F
:100FD0002B0EEDCFCB010E947D07182FF6CF1F936C
:100FE000CF93DF93C091CE0116E08091CF018C1397
:100FF00004C0DF91CF911F910895D0E01C9FF001B4
:101000001D9FF00D1124E053FE4F408151816281FC
:101010007381848195810E9473062196C770E5CF04
:10102000409100025091010260910202709103020E
:1010300080910402909105020E94730608951F9307
:10104000CF93DF9380910502807F09F049C08091A2
:101050000202882309F444C08091CE01C091CF01DF
:101060006091000270910102A0910302B09104020C
:10107000D62FD72316E0C81799F190E0109711F0FA
:10108000DF3F19F401968770F6CF189F9001199FE2
:10109000300D1124F901E053FE4F41814713F2CF87
:1010A00040814613EFCF42814111ECCF43815481FF
:1010B0004A1B5B0B483C510528F7809105028F7055
:1010C000806180930502F901EB52FE4F80818F70A1
:1010D0008061808380E092E00E94F6050E94EF0725
:1010E000DF91CF911F910895A1E1B0E0EAE7F8E028
:1010F0000C9475228C0185E0F801DE011D960190AB
:101100000D928A95E1F7F801E28080E0C82E82E036
:10111000D82E60910302709104026115710509F4E3
:101120004EC19091000220910102892F82238F3FAE
:1011300009F445C140815181A380B480F09002023E
:10114000F501E61BF70BFF2009F4EAC080910502C8
:10115000382F307FE83CF10508F0A3C031116DC095
:10116000FE2C251316C0941314C0E11012C08F700A
:101170008061809305020E941008C6010E94F60556
:1011800080910502F80185838F2D6196EAE00C9429
:101190009122A114B10429F0842F85238F3F09F0F7
:1011A00027C180E0F82FF170DF2E80FF3CC08091D6
:1011B000CE012091CF0136E0821315C04D875E87A6
:1011C0008D859E850E94C107292F22952F70223080
:1011D000F0F0243018F59F70F1F0F8019581907FC0
:1011E000D1F4D12C1EC090E0389FF001399FF00D52
:1011F0001124E053FE4F6181651306C060816413C2
:1012000003C06281E6120FC001968770D5CF9F7030
:1012100011F0882331F3805E883018F3C8010E94F2
:10122000F605FD2CB1CFEE2009F4AECF809105027A
:10123000816080930502F12CA7CF251306C094137B
:1012400004C0F801EE2009F487C0C8010E945606C8
:10125000882319F1EE2009F180910502803270F0A7
:10126000209100023091010238872F831986BB86B6
:10127000AA868C87CE0107960E94F60586E0F801C3
:10128000A0E0B2E001900D928A95E1F70E941F085C
:101290000E941008FF24F39477CFC8010E94F6053E
:1012A000F9CF311113C07A2DB98AA88A6E2D898998
:1012B0000E94690680E092E00E94F60586E0F60151
:1012C00011928A95E9F70E941008B5CF25130FC037
:1012D00094130DC0E1100BC0F8018583C8010E9472
:1012E000F60586E0F60111928A95E9F74DCFC8011F
:1012F0000E945606882389F2EE2079F28091050239
:10130000803208F4BBCF20910002309101023A8371
:1013100029831B82BD82AC828E83CE010196ACCF25
:10132000E83CF10508F03EC0FE2CEE2009F4B5CFF4
:1013300025132AC0941328C08091050280FD1BC08C
:10134000982F907FC1F0F8018583903F31F0982F5E
:10135000907F905F8F70892B8583C8010E94F6056E
:1013600086E0F801A0E0B2E001900D928A95E1F7E5
:101370000E94100809CF86E0F801A0E0B2E00190D9
:101380000D928A95E1F700CFC8010E94560681119F
:1013900075CF80910502816080930502C8010E948B
:1013A000F605F2CE7A2DB98AA88A6E2D89890E9417
:1013B000690686E0F60111928A95E9F7D9CFEE2009
:1013C00009F46BCFC8010E945606F82E882309F451
:1013D00064CF86E0F801A0E0B2E001900D928A951A
:1013E000E1F780E092E00E9433030E941F08C0CF23
:1013F00081E08E25D7CEACE0B0E0E1E0FAE00C94DD
:101400007C224F83588769877A878B879C87CE0198
:1014100007960E947408882369F08A859B85892B2A
:1014200039F04F815885842F85238F3F09F06BC099
:1014300016E05FC086E0FE013796DE01119601904E
:101440000D928A95E1F78A859B85892B89F38F8197
:10145000988589238F3F61F32091CF0130E0C90146
:101460000196877099274091CE014817190671F4AB
:101470000E9436061092CF011092CE0186E0E0E085
:10148000F2E0DF011D928A95E9F7D2CF96E0929FB4
:10149000D001939FB00D1124A053BE4FFE01319691
:1014A00001900D929A95E1F78093CF010E94EF078A
:1014B000BFCF819FC001112480539E4F0E947408AA
:1014C0008823E9F0E091CE011E9FF0011124E05342
:1014D000FE4F4081518162817381848195810E9498
:1014E00073068091CE0190E00196877099278093D2
:1014F000CE018091CE019091CF018913DACF2C9645
:10150000E3E00C94982269857A858B859C850E94FE
:1015100073068ECF682F80910001909101010E9487
:101520002A1A0895682F80910001909101010E946C
:10153000381A089580910001909101010E94461A85
:1015400008958091260285958595859508958091C9
:1015500026028770089590912602977081E009F421
:1015600080E0089580914902089590914902892B65
:101570008093490208958095909149029823909311
:101580004902089510924902089590914802892BCA
:1015900080934802089580959091480298239093F3
:1015A00048020895109248020895809127020895F4
:1015B00008950E94D80A08959091A40292FF08C04D
:1015C00090912702981721F0809327020E94D90A50
:1015D000089580912702882329F01092270280E045
:1015E0000E94D90A0895CF93DF93E0910001F09112
:1015F0000101809149028083E0910001F091010195
:10160000808190914802892B8083909127029923B1
:1016100081F0E0910001F09101018081892B8083AC
:1016200080910001909101010E94961981110E9400
:10163000E90AC0910001D091010140E250E066E06A
:1016400072E0CE010E94A422892B59F080E2FE01B3
:10165000A6E0B2E001900D928A95E1F7CE010E94DA
:101660004219DF91CF91089508950E94340B089597
:101670009091A40292FF11C098E0899F90011124DB
:10168000622B609326020E94C906809126028595EE
:10169000859585950E94350B08950E94C906089589
:1016A0001092260280E00E94350B08959091260248
:1016B0008095892380932602282F277091F4282F64
:1016C000082E000C330B9217130659F09091A402C8
:1016D00092FF07C08595859585950E94D9060E9441
:1016E000500B08959091A40292FB222720F928170D
:1016F00069F080FB92F99093A4028091A3029091EB
:10170000A4020E94C30B82E00E94560B08958091B0
:10171000A40282FB882780F991E089270E94720B3E
:10172000089581E00E94720B089580E00E94720B80
:1017300008956FEF7FEF90E080E00E94EC22089523
:1017400090E080E00E94C82221E0883E9E4F09F090
:1017500020E0822F089582E090E00E94BA2208954E
:1017600083E090E00E94BA220895CF9384E090E055
:101770000E94BA22C82F82E290E00E94BA22982FDB
:101780008C2FCF910895CF93C92F682F84E090E0DC
:101790000E94CE226C2F82E290E00E94CE22CF9156
:1017A0000895AB01BC018FE090E00E94E022089513
:1017B000AB01BC0183E190E00E94E022089560E06B
:1017C00070E0CB010E94D80B089560E070E0CB017F
:1017D0000E94D10B0E94DF0B089568EE7EEF90E02F
:1017E00080E00E94EC2260E082E090E00E94CE2245
:1017F00060E083E090E00E94CE221092CD01109232
:10180000CC0160E084E090E00E94CE2264E082E2BD
:1018100090E00E94CE2260E085E090E00E94CE221F
:1018200060E086E090E00E94CE226FEF87E090E0DB
:101830000E94CE2240E050E0BA0188E090E00E9491
:10184000E02260E08DE090E00E94CE2240E050E097
:10185000BA0188E190E00E94E02260E087E190E038
:101860000E94CE2240E050E0BA018CE190E00E945C
:10187000E02270E060E080E290E00E94EC2240E034
:1018800050E0BA0188E190E00E94E0220E94E50B5E
:1018900008950E94ED0B0895682F8EE090E00E945D
:1018A000CE2208950E94141B60935A0270935B022B
:1018B00080935C0290935D0260935602709357028E
:1018C00080935802909359020895089508950E94B4
:1018D000660C089508950E946A0C089585E19FE0C2
:1018E0000E942B190E94650C0E94670C089581E0EC
:1018F00008950E94770C0895089508950E947C0C25
:101900000E947D0C08950E94340F0E94D202089517
:101910000E94FF1A0E940F100E94830C0E94E01583
:101920000E946B0C0895AAE0B0E0E9E9FCE00C9499
:1019300072220E9425102CE4822E22E0922E640155
:1019400010E0F601E190F1906F01812F0E945A0F93
:101950001F5F153009F449C0E816F90691F380912C
:101960005E0281FD0E94630F0E94790C782E10E0C8
:10197000812F0E945A0F7C01F401A190B1904F0178
:101980008A159B0561F1A826BF2400E0CC24C394EE
:10199000D12CC5018C219D21892BC1F07720B1F07C
:1019A0000E831F8321E0C7018C219D21892B09F41F
:1019B00020E028870E94081B8160782F9A878987FA
:1019C0004E815F8168858A850E94FE020F5FCC0C84
:1019D000DD1C0E30F1F6F4013297F182E0821F5FD8
:1019E000153031F60E94520C22C0E816F90609F0B3
:1019F000B6CF0E94081B8C0180914A0290914B0245
:101A000008171907A1F08FEF89838A831B820E9430
:101A1000081B8160782F9D838C8349815A816B815B
:101A20008D810E94FE0210934B0200934A020E9495
:101A300043120E94E5022A96EDE00C948E22CF9389
:101A4000DF930E94300EEC01811521E5920708F02A
:101A500042C0811530E5930708F09FC0883E91058C
:101A600030F5803E910508F094C0883A910588F4DD
:101A7000853A910508F086C08130910509F489C046
:101A8000009709F486C0049708F083C0D0E0C0E056
:101A900080C08F3B9105D0F7C85AD0E0CC0FDD1F36
:101AA000C35BDE4F0990D881C02DD46472C081150C
:101AB00040E2940750F4C11581E0D80708F069C0EE
:101AC000CD3ED10518F3D06564C081159044F0F285
:101AD000DF70D06A5EC0811535E5930718F5811572
:101AE00044E5940708F085C0C11583E5D80708F0E0
:101AF0006CC0C11522E5D20708F462C0CE01837024
:101B0000992721E030E002C0220F331F8A95E2F7C7
:101B1000C695C69580E2C89FE0011124C22BD32B45
:101B2000DC6837C0811539E59307A8F4811548E5CD
:101B3000940708F063C0C11586E5D80708F0A6CF62
:101B40008C2F0E94D20EC82FD0E0DC2FCC27CC27C0
:101B5000DF71D0621EC081152AE5920708F453C0D8
:101B600090568115904208F091CF8D2F8F710E9471
:101B7000D20E90E0982F882788279F719C012C2BEC
:101B8000E901E7CFC55AD0E0C558DE4FC881D0E0A3
:101B9000D064CE01DF91CF9108958370992721E021
:101BA00030E002C0220F331F8A95E2F7C695C69532
:101BB00040E2C49FE0011124C22BD32BDD68E9CFA2
:101BC000DC2FCC27C16FD06AE4CFCE018370992778
:101BD00021E030E002C0220F331F8A95E2F7C6955C
:101BE000C69540E2C49FE0011124C22BD32BDA68D2
:101BF000D0CFD82FCC27C46FD06ACBCFD82FCC274B
:101C0000C06FD06AC6CF8F700E94D20E34E0D695D6
:101C1000C7953A95E1F7CF709C2FEC01D069B9CF09
:101C2000972F7530A8F46E3098F470E02EE0929FF4
:101C3000600D711D1124FB0196E4899FE00DF11DDB
:101C40001124EE0FFF1FE455FF4F859194910895E5
:101C500080E090E008950E94100E0E941F0D0895EC
:101C600082389105B9F1B0F48133910509F47DC052
:101C700048F48932910509F46DC08A32910509F45E
:101C80007BC008958533910509F45FC089339105C0
:101C900009F10895833E9105D9F138F4803E91050C
:101CA00029F1823E910579F10895863E9105D9F199
:101CB000873E910509F43EC0843E910541F520918F
:101CC000A40221FF24C08091A30284FD19C087EEE5
:101CD00090E008952091A302237009F05AC020914A
:101CE000A40223FF14C089E290E008952091A3028A
:101CF00020FD38C03091A40230FF09C024FF43C04A
:101D000090E080E008952091A30222FDF7CF08958E
:101D10002091A30222FD3AC03091A40230FD39C0C7
:101D200024FFF5CFEDCF2091A30223FFF0CF24FDB8
:101D3000E7CFCDCF2091A30223FD2EC03091A40286
:101D400031FFEECF84EE90E008952091A30225FFAD
:101D5000DECFC9CF2091A30225FD21C02091A4028E
:101D600023FFD5CF89E390E0D2CF2091A30226FFB5
:101D7000CECF8AE290E008952091A30226FFC7CF3C
:101D800081E390E0089583EE90E0089582EE90E084
:101D9000089580EE90E0089586EE90E0089585E342
:101DA00090E008959091A30292FF06C0282F287119
:101DB0002830F9F4877F846093FF06C0282F2871AC
:101DC0002831F1F4877E84612091A40220FF06C0AF
:101DD000382F38713830D9F4877F816021FF06C0F1
:101DE000282F28712831D1F4877E816194FD877E68
:101DF0000895282F24712430F9F68B7F8860DCCF7A
:101E0000282F2471243101F78B7E8861DDCF382F94
:101E10003171313019F78E7F8860E0CF282F217122
:101E2000213121F78E7E8861E1CF80E008950E9404
:101E3000990B08950E9425102FEF86E791E021501D
:101E400080409040E1F700C000000E94251080E033
:101E50000E945A0F80FF04C00E94170F0E94531B5C
:101E600008950E941A0F08950E94A00B811102C0CC
:101E70000E94490C0E94AB0B80935E020E94B50B3E
:101E80009093A4028093A3020E94310F0E94B00B92
:101E900090E00E948B068091CA019091CB010E9434
:101EA000AC06089508950E94520F089508950E9467
:101EB000560F0895E82FF0E0EE0FFF1FE155FD4F9C
:101EC000808191810895089580EA8A95F1F70895B7
:101ED00000C008950E94640F0895F894E82FE295D9
:101EE000EF70F0E031A1282F2F7081E090E001C069
:101EF000880F2A95EAF7982F9095932391A392A1A2
:101F0000892B82A378940895CF93DF93CCE8D1E016
:101F100089918F3F11F00E946D0F81E0C139D80780
:101F2000B9F7CEE7D1E089918F3F11F00E946D0F94
:101F300081E0CC38D807B9F7DF91CF910895AF92FF
:101F4000BF92DF92EF92FF920F931F93CF93DF9395
:101F50008C01D62EC62FD0E0CE0184579E4F7C0137
:101F6000FC0120812F3F09F44DC0F894E22FE29547
:101F7000EF70F0E031A12F7081E090E001C0880F98
:101F80002A95EAF7932F982B91A392A18095892304
:101F900082A378940E94680FEEE7F1E04CE851E0EC
:101FA00021E030E0B12CA12C61916F3FA9F1A62F67
:101FB000A295AF70B0E090968C9190E06F7002C0E7
:101FC000959587956A95E2F780FD26C0C901A82AF4
:101FD000B92A220F331F4E175F0731F7F7018081AF
:101FE0008F3F11F00E946D0F61E0A114B10409F45C
:101FF00060E08D2D0E946A0FCC0FDD1FC00FD11F36
:10200000B982A882DF91CF911F910F91FF90EF903D
:10201000DF90BF90AF90089590E080E0D8CF0E940D
:10202000840F8AE0EFEAF2E0DF01982F1D929A9583
:10203000E9F7E5EAF2E0DF011D928A95E9F785E02C
:102040000E9460100E9446020895AAE0B0E0EBE210
:10205000F0E10C947A228E010F5F1F4F8AE0F801A5
:1020600011928A95E9F7F12C6F2DC8010E949F0FFC
:10207000F394F5E0FF12F8CF4AE050E0B80185EAAA
:1020800092E00E94A42221E0009709F420E0892B2D
:1020900041F08AE0F801A5EAB2E001900D928A953C
:1020A000E1F745E06FEA72E085EA92E00E94611094
:1020B000182F0E944902812F2A96E5E00C9496225F
:1020C0000895CF92DF92EF92FF921F93CF93DF9309
:1020D0006C017B01C42F222349F081E080936102CF
:1020E0000E94081B9093600280935F02109161022E
:1020F00011110AC010E0812FDF91CF911F91FF9045
:10210000EF90DF90CF90089580915F0290916002F0
:102110000E94201B059770F3D0E0CC0FDD1FAE01AD
:10212000B601C7010E94A422892B41F0AE01B6017D
:10213000C7010E94B12210926102DDCF10E0FBCFF7
:102140000E941A1D0E94880C0E94271D08950E945B
:102150002C1D0E94930C0E94461D08950E94A11AF6
:102160000E94001D0E946E0C0E94A0100E94A710E9
:102170000E947E0CFBCF8091680280FF0DC06091B1
:10218000070170E0660F771F6038710570F5611503
:10219000710569F1862F089581FF07C060910701DD
:1021A00084E0689FB0011124EFCF6091070182FDA8
:1021B0000AC0809167028823A9F0209106016091EE
:1021C0000701821710F088E0ECCF869FC001112430
:1021D00033E0880F991F3A95E1F7622F70E00E9473
:1021E0005322D2CF68E070E0D5CF8FE7089581E029
:1021F00008958091680280FF0CC06091030170E037
:1022000075956795759567956115710549F1862FE7
:10221000089581FF06C06091030170E07595679590
:10222000F3CF6091030182FD0BC090916602992368
:10223000A1F06091020180910301961738F0682F98
:1022400070E06038710500F38FE70895899FC00141
:10225000112470E00E945322F4CF61E070E0D7CFE8
:1022600081E008958D3E31F40E94BB1081958093EA
:102270006C0208958E3E19F40E94BB10F8CF8F3E79
:1022800031F40E94BB10819580936B020895803FCA
:1022900019F40E94BB10F8CF893F29F40E94F9106D
:1022A00080936D0208958A3F21F40E94F910819570
:1022B000F7CF8B3F31F40E94F910819580936E0225
:1022C00008958C3F19F40E94F910F8CF9FE0980F01
:1022D000983070F4815F990B21E030E001C0220F4B
:1022E0008A95EAF780916A02822B80936A020895A8
:1022F0008D3F31F480916802816080936802089577
:102300008E3F21F4809168028260F7CF8F3FB9F74A
:10231000809168028460F1CF40916B028D3E59F448
:1023200080916C0287FF0DC010926C0241110BC0AE
:102330001092670208C08E3E81F480916C021816DC
:102340009CF3442381F080916D0290916E02892B61
:1023500009F05AC01092660208958F3E49F447FF73
:10236000F0CF10926B0280916C028111ECCFE0CF24
:10237000803F19F41416ACF3E4CF90916D02893FBD
:1023800029F41916F4F610926D02DBCF8A3F19F486
:1023900097FFD7CFF8CF90916E028B3F29F497FF2C
:1023A000D0CF10926E02CDCF8C3F19F41916CCF31A
:1023B000C8CF9FE0980F983090F4815F990B21E08F
:1023C00030E0B90102C0660F771F8A95E2F7CB01B2
:1023D000809590916A02892380936A02B2CF8D3FE3
:1023E00031F4809168028E7F80936802AACF8E3F7D
:1023F00021F4809168028D7FF7CF8F3F09F0A1CF44
:10240000809168028B7FF0CF08950E94081B9C0189
:1024100090916B0280916C02982B21F030936502B1
:102420002093640290916D0280916E02982B21F0AE
:10243000309363022093620289E692E00E945C1965
:10244000089586E0E9E6F2E0DF011D928A95E9F75A
:102450001092670210926602109268020895FC01C1
:10246000828181110EC0838181110BC08481811111
:1024700008C091E08581811101C090E0892F8170B1
:10248000089581E0FCCFA6E0B0E0E9E4F2E10C942D
:102490007C2286E0E9E6F2E0DE01119601900D92E1
:1024A0008A95E1F710926B0210926C0210926D0205
:1024B00010926E028B819C81892B89F0809164023D
:1024C000909165020E94201BAC01909167029923B4
:1024D000C9F1809108018417150608F440C08D8168
:1024E0009E81892B91F080916202909163020E94FB
:1024F000201BAC0190916602992309F471C0809170
:1025000004018417150608F479C0BE016F5F7F4F80
:1025100089E692E00E94581A811105C089E692E08E
:102520000E942F1281110E94051286E0FE01319651
:10253000A9E6B2E001900D928A95E1F72696E3E0D4
:102540000C949822209109018AE0289F900111247F
:102550002417350720F69F5F9093670202C09F3FC4
:10256000D1F71B81112359F00E94BB109FEF111668
:102570000CF491E0899F802D112480936B021C81C3
:10258000112359F00E94BB109FEF11160CF491E03B
:10259000899F802D112480936C0230916B0233232C
:1025A00009F49DCF20916C02222309F498CF45EBCA
:1025B0003403C0011124992359F090936B0245EB29
:1025C000240390011124332339F030936C0287CF18
:1025D00081E080936B02F3CF81E080936C027FCF28
:1025E000209105018AE0289F9001112424173507C6
:1025F00008F08BCF9F5F9093660202C09F3FD1F798
:102600001D81112359F00E94F9109FEF11160CF44F
:1026100091E0899F802D112480936D021E811123EA
:1026200059F00E94F9109FEF11160CF491E0899F68
:10263000802D112480936E0230916D02332309F4B2
:1026400064CF20916E02222309F45FCF45EB34035F
:10265000C0011124992359F090936D0245EB240396
:1026600090011124332339F030936E024ECF81E074
:1026700080936D02F3CF81E080936E0246CFEF929C
:10268000FF920F931F93CF93DF93EB01E82FD111AC
:102690000EC0442321F0F0E0E35CFE4FE4916E2F86
:1026A0007E2F8E2FCDB7DEB7E6E00C9495220D2F4E
:1026B00010E0282F30E0442329F0235C3E4FF9013D
:1026C000249130E0F6E0CF9FC0011124EFEFF0E05D
:1026D000BF010E943F22AB018C2F90E0880F991F11
:1026E000A5E5A49FB001A59F700D1124861B970B33
:1026F000982F990F980FBF01601B710B629FD0013B
:10270000639FB00D729FB00D11248B2F9D9FB00160
:102710001124672F7727EF01C61BD70BBE01629FDD
:10272000E001639FD00D729FD00D11247F01E91A43
:10273000F108E09EB001E19E700DF09E700D112435
:10274000672F7727E61BF70BE29F8001E39F100DB1
:10275000F29F100D1124E12F722F4230510599F094
:1027600048F44115510569F04130510581F0EB2FD6
:102770008D2F07C04430510569F080F04630510577
:10278000B1F76E2F8FCFE22F7B2F812FFACFE22F61
:102790007D2FF7CFEB2F822F712FF3CF7B2F822F3F
:1027A000ED2FEFCF41E00E943F1308950E94D21316
:1027B0000895CF93DF93762FE901682F842F0E942D
:1027C000D613798368838A83DF91CF9108958091AE
:1027D000B902982F9E7F29F4817082608093B9029C
:1027E00008958831E8F381708661F8CF88E090E041
:1027F0000E94C2220895CF92DF92EF92FF926B0166
:102800007C010E94E713B701A60188E090E00E94D6
:10281000E022FF90EF90DF90CF900895E9EBF2E097
:1028200083E0808311828FEF8283838314826081AF
:102830007181828193810E94FB1308958091B90276
:1028400080FF02C08695089580E008959091BD02B2
:10285000933018F49F5F9093BD02882351F06091EC
:10286000B9027091BA028091BB029091BC020E94A1
:10287000FB13089581E00E94261408959091BD02F3
:10288000992319F091509093BD02882351F06091E3
:10289000B9027091BA028091BB029091BC020E9471
:1028A000FB13089581E00E943E14089570E00E9499
:1028B000B116089560910B018091B90280FF0BC0A1
:1028C00080910A0123E0829FC001112482549D4F10
:1028D0000E945614089580910C0190910D0123E0FF
:1028E000829FF0011124E254FD4F891748F71182AD
:1028F000108212828F5F3396F8CFE9EBF2E080818D
:102900008E7F808360817181828193810E94FB131D
:102910002FEF80E792E0215080409040E1F700C027
:1029200000000E945A1408959091B90290FF0EC0C1
:1029300090910C0120910D0133E0939FF00111243F
:10294000E254FD4F921718F00E945A1408958183A3
:10295000608342839F5F3396F5CFA3E0B0E0E3EB63
:10296000F4E10C947622F82ED62EE42EC22E80911D
:10297000B90280FF29C0E82FE695AE2FB0E0AF5630
:10298000BE4F9C91909370028E7F823009F59E011C
:102990002F5F3F4F8F2D0E94D9134B8169818A8110
:1029A0000E949414F092BA02D092BB02E092BC0250
:1029B000CC2051F06091B9027091BA028091BB02B3
:1029C0009091BC020E94FB132396E9E00C949222A2
:1029D000923041F7E2506E2F6170B62EE695F0E02E
:1029E000E85CFE4F149100E060910E01061718F0AC
:1029F0000E945A14D7CF019FC001112470E00E9499
:102A00003F228F2DB11014C0860F20910C01622F30
:102A1000600F7727771F9B01220F331F260F371F69
:102A200022543D4F4E2D6D2D0E94D9130F5FDCCFE8
:102A3000861BEBCFE9EBF2E09181282F4381628185
:102A40008AE0890F0E94AD14089581E00E941A1552
:102A50000895E9EBF2E09181282F4381628186EFAE
:102A6000890F0E94AD14089581E00E9429150895F0
:102A7000E9EBF2E0628121E1620F08F46FEF282FA9
:102A8000438181810E94AD14089581E00E94381530
:102A90000895E9EBF2E0628121E1621B08F460E055
:102AA000282F438181810E94AD14089581E00E9406
:102AB00049150895E9EBF2E0438121E1420F08F462
:102AC0004FEF282F628181810E94AD14089581E02B
:102AD0000E945A150895E9EBF2E0438121E1421B7F
:102AE00008F440E0282F628181810E94AD1408958E
:102AF00081E00E946B15089520E00E94AD140895B6
:102B00009091B90290FF1AC09170811118C0926023
:102B10009093B902662351F06091B9027091BA02A4
:102B20008091BB029091BC020E94FB134091BC02B9
:102B30006091BB028091BA020E947C1508958C308E
:102B400010F09661E5CF880F982BE2CF682F909117
:102B5000B902969581E0890F8C3008F081E00E94DF
:102B60008015089581E00E94A6150895682F909120
:102B7000B90296958FEF890F09F48BE00E948015BA
:102B8000089581E00E94B615089561E00E948015C5
:102B90000895E9EBF2E080818160808386950E9450
:102BA000C51508958091B90280FF03C00E947D146D
:102BB00008950E94C915089560E00E948015089547
:102BC00080916F0281112CC00E94A00B811104C062
:102BD0000E94490C0E940E140E94F6136093B902E1
:102BE0007093BA028093BB029093BC026E7F61F433
:102BF0000E940E140E94F6136093B9027093BA02F9
:102C00008093BB029093BC020E94E7138091B902AB
:102C100080FF03C086950E94DC1581E080936F02DF
:102C20000895FA01811101C0FB01099508950E94E0
:102C30001E14823038F00E941E148B3018F40E944B
:102C4000B215089582E00E94C51508951F93CF9391
:102C5000DF93EC01FB011281111150C00E94B20AF6
:102C60008272CB3CFCE5DF0709F46EC040F5C63C40
:102C7000ECE5DE0709F454C060F4C43C9CE5D907D8
:102C800009F444C008F047C0C33CDC45E1F111E061
:102C900035C0C83C9CE5D90709F44CC008F445C0D0
:102CA000C93CFCE5DF0709F44AC048E755E167E69F
:102CB00075E1CA3CDC4559F70E9411161FC0C53D9D
:102CC000ECE5DE0798F4CF3CFCE5DF07B8F4CD3C3B
:102CD0009CE5D907F1F142E554E16AE374E1CE3CA9
:102CE000DC4550F381E00E94C51508C0C63DFCE5F7
:102CF000DF0721F098F1CE35DD4549F6812FDF91D0
:102D0000CF911F9108950E94D215F8CF41EC55E163
:102D100062EB75E1D1CF42EB55E161EC75E1CCCFCF
:102D200044E355E165E275E1C7CF45E255E164E36F
:102D300075E1C2CF46E555E165E475E1BDCF45E4F7
:102D400055E166E575E1B8CF47E655E168E775E11D
:102D5000B3CF4AE354E162E574E1AECF0E941716A7
:102D6000CDCF869A41B34F7B51B35064EFB7F894FF
:102D70009B01220F331F260F371F280F391F2817DB
:102D8000390741F4EFBF8FE594E00197F1F700C0F8
:102D900000000895DC016D91CD0178E051BB000089
:102DA00000C067FF41BB660F000000C000C000C04C
:102DB00041BB00C07A9591F7E2CFCF93DF93EC014E
:102DC000FB018281882309F464C1C430FDE5DF077B
:102DD000E0F5CB3F9CE5D90730F49E0122503C45FD
:102DE00024313105D8F50E94B50B9093A40280934D
:102DF000A302C231ECE5DE0709F41FC108F06EC082
:102E0000C9308CE5D80709F4F2C008F03FC0C530DE
:102E1000ECE5DE0709F4DBC058F5C3308CE5D807D4
:102E200009F4CDC008F0CFC08091A3028160C23008
:102E3000DC4509F4AEC08091A3029091A4020E94E7
:102E4000C30B0E94360680E009C0C63AEDE5DE07F6
:102E500051F238F4C2369DE5D90729F2DF91CF91BE
:102E600008959E012E5A3D4523303105B8F7BBCF5A
:102E70008091A3028062C730FCE5DF0709F489C0B6
:102E800008F4B1C08091A302806483C0CD309CE57A
:102E9000D90709F4BAC070F48091A3028E7FCB30B9
:102EA000FCE5DF0709F475C008F4A7C08091A30210
:102EB0008D7F6FC0CF309CE5D90709F4B6C008F408
:102EC000A8C0C031FCE5DF0709F4B3C0C131DC455F
:102ED00009F0B1CF8091A3028F7B5BC0C1159DE546
:102EE000D90709F4B4C098F5CB3FFCE5DF0709F436
:102EF00072C0B8F4C4319CE5D90709F4B6C008F42F
:102F0000A2C0C531DC4509F096CF8091A30282FBB7
:102F1000992790F921E0922790FB82F990FB83F9A1
:102F200038C0CD3F8CE5D80709F477C008F457C006
:102F3000CE3FECE5DE0709F474C08091A402836003
:102F4000CF3FDC4509F077CF8093A40274CFC2361F
:102F50008DE5D80709F496C068F4C230EDE5DE07C8
:102F600009F48CC008F477C0C330DD4509F063CFA5
:102F700080E085C0CE3A9DE5D907E9F068F49091EC
:102F8000A302892F8E7F90FF8160C63ADD4509F04C
:102F900052CF8093A3024FCFCF3A8DE5D80789F166
:102FA000C03BDD4509F047CF9091A402892F877F70
:102FB00093FF8860C9CF8091A4028860C5CF8091BB
:102FC000A3028260E6CF8091A3028460E2CF809169
:102FD000A3028860DECF8091A4028160B5CF80918A
:102FE000A4028260B1CF8091A3028061D2CF0E94FF
:102FF00036068091A3028068CCCF8091A3028C60BA
:10300000C8CF8091A402877F9FCF8091A3028B7F3E
:10301000C0CF8091A302877FBCCF8091A4028E7F16
:1030200093CF8091A4028D7F8FCF8091A3028F7E5A
:10303000B0CF8091A3028F7DACCF0E9436068091E5
:10304000A3028F77A6CF8091A302837FA2CF809126
:10305000A4028C7F79CF8091A402982F90959170D3
:103060008E7F892B90FB81F96FCF0E94360690915D
:10307000A302892F97FB87F980588BCF81E00E94AC
:103080004C0CD9CE9091A302892F8F7E94FF806142
:1030900080CF81E0E3CECF93DF93EB0186319C4577
:1030A00011F50E94B20A9A81992399F08A7A91E0E7
:1030B00009F490E090937202811109C089E20E94A4
:1030C0008A0A0E94F30A80E0DF91CF91089585E398
:1030D000F6CF80917202811104C089E20E94920AA7
:1030E000F0CF85E3FBCF81E0EFCF0F931F93CF931A
:1030F000DF93C42FD22FFC0182818823C9F0409333
:1031000075020E94081B909374028093730280E200
:103110008C0F883040F4C77081E001C0880FCA95D9
:10312000EAF70E94D803DF91CF911F910F91089584
:1031300010917502141332C0809173029091740241
:103140000E94201B883C910548F5C0E2CD0F1D1759
:10315000B9F080E2810F883040F4177081E001C03F
:10316000880F1A95EAF70E94DF03C83048F481E01F
:103170009D2F977001C0880F9A95EAF70E94D80397
:10318000802F0E94CF03C83070F6D77081E001C055
:10319000880FDA95EAF70E94DF03C5CF80E28C0F33
:1031A000883008F6C77081E001C0880FCA95EAF739
:1031B000F2CF0F939C01CB01243F4CE5340759F12A
:1031C000A8F4293DFCE53F0701F12A3D4CE5340711
:1031D000D1F1283D3C4591F406E221EE41EE68ED47
:1031E0007CE50E94751880E00F910895263FFCE56C
:1031F0003F07E9F0B0F0273F3C45F9F0FC01828140
:10320000882339F110927502EFCF07E225EE45EEE3
:1032100069ED7CE5E6CF06E221EE40EE64EF7CE569
:10322000E0CF07E225EE44EE65EF7CE5DACF06E27B
:1032300021EE42EE66EF7CE5D4CF07E225EE46EEC6
:1032400067EF7CE5CECF08E221E045EE6AED7CE554
:10325000C8CF81E0C9CF90939F0180939E010895CC
:1032600090937B0280937A020895E0917A02F09124
:103270007B02309729F00190F081E02D09950895A7
:1032800080E00895E0917A02F0917B02309799F006
:1032900020911B01222359F02091A30227FF07C090
:1032A000DC012C9111962C93119726E02C9302802F
:1032B000F381E02D09950895E0917A02F0917B0267
:1032C000309739F022E0DC012C930480F581E02D69
:1032D00009950895209178023091790228173907CD
:1032E00071F09093790280937802E0917A02F091E4
:1032F0007B02309721F00680F781E02D0995089533
:1033000020917602309177022817390771F0909357
:10331000770280937602E0917A02F0917B023097F7
:1033200021F00084F185E02D09950895FC01329685
:1033300080911B01882321F08091A3029EE187FFE9
:1033400096E080E0915008F4089521912223D1F372
:103350008F5FF8CF662301F120911B012223F1F04A
:103360002091A30227FF1AC0462F46954695469501
:103370004E3190F4677021E030E002C0220F331F1D
:103380006A95E2F7840F911DFC01828190E0282369
:10339000392381E0232B69F480E00895FC01329603
:1033A00008962191261721F0E817F907D1F7F4CFF5
:1033B00081E008959C01FC0132969FEF80E04191ED
:1033C000461751F09F3F19F4411101C0982F8F5FAC
:1033D0008630A9F79F3F09F40895290F311D97FD05
:1033E0003A95F90162830895FC013296089621917D
:1033F000261303C0DF0111971C92E817F907B9F7EC
:103400000895E62FE695E695E695EE3168F4E80F27
:10341000F92FF11D677021E030E001C0220F6A959D
:10342000EAF78281822B82830895E62FE695E6955E
:10343000E695EE3170F4E80FF92FF11D677021E089
:1034400030E001C0220F6A95EAF720958281282397
:103450002283089520911B01222339F02091A30299
:1034600027FF03C00E94011A08950E94DA190895E7
:1034700020911B01222339F02091A30227FF03C0D2
:103480000E94151A08950E94F4190895FC013296BD
:1034900080911B01882351F08091A30287FF06C011
:1034A0008EE1DF011D928A95E9F7089586E0F9CF54
:1034B00046E050E00E94A42221E0892B09F420E09C
:1034C000822F089508950E94621A0895811106C0FE
:1034D00081E080937C020E94631A089582E0F9CF14
:1034E00083E080937C020E94631A08950E94661A0A
:1034F000089581E080937C020E94631A08950E94DF
:10350000791A0895089508950E94831A08950895D8
:1035100008950E94821A0895CF930E94871A0E94EC
:1035200025100E94881AC0E08C2F0E945A0F892B08
:1035300031F4CF5FC530C1F780E0CF91089581E0CD
:10354000FCCF85B7806885BF85B7806885BF089543
:103550001F921FB61F9211248F939F93AF93BF9317
:1035600080917D02811113C0809172039091730349
:10357000A0917403B09175034196A11DB11D809374
:10358000720390937303A0937403B0937503BF9178
:10359000AF919F918F911F901FBE1F9018958091A2
:1035A0007A03843031F10E94BF0210927D0288E1DB
:1035B00090E020E40FB6F894A895809360000FBEC9
:1035C0002093600083B7817F846083BF83B781606D
:1035D00083BF7894889583B78E7F83BF0FB6F894A6
:1035E000A8958091600088618093600010926000CF
:1035F0000FBE08950E9436060E94C402089582E01C
:1036000084BD93E095BD9AEF97BD80936E000895B9
:103610002FB7F8948091720390917303A091740373
:10362000B09175032FBF08952FB7F894609172037E
:103630007091730380917403909175032FBF089567
:103640009C014FB7F8948091720390917303A091FD
:103650007403B09175034FBF821B930B0895789448
:103660001F921FB61F9211248F939F93AF93BF9306
:103670008091720390917303A0917403B0917503CC
:103680000196A11DB11D8093720390937303A093C3
:103690007403B0937503BF91AF919F918F911F9069
:1036A0001FBE1F90189587E797E7909301088093B6
:1036B000000888E19AE00FB6F894A895809360001E
:1036C0000FBE90936000FFCF88E19AE00FB6F894A8
:1036D000A895809360000FBE90936000FFCF80910B
:1036E000A102089508959C0182E08093E9009FEF74
:1036F0008091E800915085FD06C085ED8A95F1F72F
:1037000000009111F5CF8091E80085FF0CC050E0DA
:1037100040E066E070E0C9010E94B81D8091E800B9
:103720008E778093E8000895CF93DF93EC0180912A
:103730001B018823B1F18091A30287FF32C060E2B0
:1037400082E08093E9008FEF9091E800815095FD31
:1037500006C095ED9A95F1F700008111F5CF8091A3
:10376000E80085FF1BC080911B0170E050E040E045
:10377000811104C050E040E068E070E0CE010E949A
:10378000B81D8091E8008E778093E80080E2FE010A
:10379000A1E8B2E001900D928A95E1F7DF91CF9117
:1037A000089568E081E0CDCF80937E02709380021F
:1037B00060937F0280917A03843001F582E08093E8
:1037C000E9008FEF9091E800815095FD06C095EDDE
:1037D0009A95F1F700008111F5CF8091E80085FFFF
:1037E0000DC050E040E063E070E08EE792E00E94A0
:1037F000B81D8091E8008E778093E8000895BC01A1
:1038000084E00E94D41B0895BC0183E00E94D41B75
:10381000089580917903811109C00E94481F0E9478
:10382000A51F8091E20084608093E20008951092C9
:10383000790308950E94791A08956091760381E0D2
:10384000611101C080E00E94701A089590917A037E
:1038500081E0943009F080E0609176030E94761A4E
:10386000089542E061EC81E00E94C41E42E261ECF6
:1038700082E00E94C41E90917A0381E0943009F0A6
:1038800080E0609176030E94661A089580917C031F
:10389000833009F461C030F48130D1F1823009F411
:1038A0009EC008958A3009F48AC08B3009F46FC035
:1038B000893009F050C080917B03813209F04BC000
:1038C00080917F0390918003029708F044C080911B
:1038D000E800877F8093E8008091E80082FF37C08E
:1038E0009091F3008091F200029731F48091F10001
:1038F000813011F0863021F48091F1008093A10293
:103900008091E8008B778093E8000E94F81E23C026
:1039100080917B03813AF9F48091E800877F80935E
:10392000E80080917F0390918003892B61F460E22D
:1039300081E892E070E00E94071E8091E8008B779A
:103940008093E800089560E090E080E0F3CF8091FC
:103950007A038111C1CF089580917B03813AD9F711
:1039600080917F0390918003892BA9F78091E800D3
:10397000877F8093E8008091E80080FFFCCF8091F2
:103980001B018093F1008091E8008E77BCCF80917D
:103990007B03813201F780917F0390918003892B13
:1039A000D1F68091E800877F8093E8000E94F81E9E
:1039B00080917D0380931B010E94360608958091BB
:1039C0007B03813241F68091E800877F8093E80095
:1039D0000E94F81E80917E038093A2020895809138
:1039E0007B03813A09F0B7CF8091E800877F80930D
:1039F000E8008091E80080FFFCCF8091A202C1CF57
:103A000084B7877F84BF0FB6F894A8958091600033
:103A1000886180936000109260000FBE80E890E0A3
:103A20000FB6F89480936100909361000FBE0E94DE
:103A30007F1A08950E94481F0E94A51FE2EEF0E041
:103A400080818460808378940E94242208958FE08E
:103A500091E00E943019089580917A03853031F405
:103A600080917A03853019F00E94FA1A08950E9415
:103A7000CF1A80917803882399F30E948C1A8823A7
:103A800079F30E94A21D0E943606EACF08950E9493
:103A90004A1D0895292F33272330310519F168F481
:103AA0002130310509F444C02230310509F445C004
:103AB00090E080E030E020E025C02132310549F17E
:103AC00022323105A9F780E490E020E733E0611568
:103AD0007105C1F086EB90E02AEB32E061307105B0
:103AE00089F0E6CF99278130910581F0009729F080
:103AF0000297F1F6EDE3F2E002C0E9E6F2E084912C
:103B000090E09F01FA01318320830895EFE5F2E010
:103B1000F6CF89E090E02FE732E06115710591F36F
:103B200089E090E028E932E06130710559F3C0CFB7
:103B300082E190E028EA32E0E5CF8BE390E02DE6E9
:103B400032E0E0CF80E189BD82E189BD09B400FEA9
:103B5000FDCF8091D8008F7D8093D8008091E000C8
:103B600082608093E0008091E00081FDFCCF0895A9
:103B7000AF92BF92CF92DF92FF920F931F93CF939A
:103B8000DF936C01EB018A010E94171FF82E81114F
:103B900023C00115110539F0F80180819181C81BFE
:103BA000D90BC80ED91EB12CA12C2097A9F0809159
:103BB000E80085FD22C08091E8008E778093E800C0
:103BC00001151105A1F0F80180819181A80EB91E9F
:103BD000B182A08285E0F82E8F2DDF91CF911F91C9
:103BE0000F91FF90DF90CF90BF90AF9008950E940B
:103BF000171F8823D1F2F82EEFCFF60181916F01C4
:103C00008093F1002197FFEFAF1ABF0ACECFFC01DE
:103C1000809181039091820386179707A0F0611528
:103C2000710529F49091E8009E779093E80090E068
:103C30006115710551F4911108C08091E80082FF6F
:103C400034C080E00895BC01F2CF80917A038823CC
:103C5000C1F18530C1F18091E80083FD30C08091D1
:103C6000E80082FDEACF8091E80080FFE1CF8091FB
:103C7000F3002091F200382F6115710519F02830FA
:103C8000310558F091E02830310509F090E020919D
:103C9000E8002E772093E800CBCF81918093F1004C
:103CA000615071092F5F3F4FE7CF80917A038823DE
:103CB00041F0853041F08091E80083FFBECF81E084
:103CC000089582E0089583E00895FC0180918103C6
:103CD0009091820386179707A0F06115710529F46A
:103CE0008091E8008E778093E80090E0611571057F
:103CF00051F4911108C08091E80082FF35C080E046
:103D00000895BC01F2CF80917A038823C9F18530F0
:103D1000C9F18091E80083FD31C08091E80082FD07
:103D2000EACF8091E80080FFE1CF8091F3002091FD
:103D3000F200382F6115710519F02830310558F05F
:103D400091E02830310509F090E08091E8008E770D
:103D50008093E800CBCF84918093F100319661503D
:103D600071092F5F3F4FE6CF80917A03882341F09E
:103D7000853041F08091E80083FFBDCF81E0089558
:103D800082E0089583E00895982F973028F08F708F
:103D90008093E90081E008959093E900242F762F25
:103DA00050E0981731F07091EC002091ED005091A7
:103DB000F00021FD02C09F5FE8CF3091EB003E7F15
:103DC0003093EB003091ED003D7F3093ED0030916A
:103DD000EB0031603093EB007093EC002093ED002A
:103DE0005093F0002091EE0027FDE5CF80E008958C
:103DF00080917B0387FF13C08091E80082FF06C09B
:103E00008091E8008B778093E80004C080917A036A
:103E10008111F2CF089580917A038823D9F380919C
:103E2000E80080FFF8CF8091E8008E77ECCF2091FA
:103E3000E4003091E50095E6A9012091EC00822F85
:103E4000817020FF06C08091E80080FF06C080E0FE
:103E500008952091E80022FD1AC080917A038823FA
:103E600089F0853089F08091EB0085FD0FC02091AD
:103E7000E4003091E50042175307F9F29150E1F662
:103E800084E0089582E0089583E0089581E0089534
:103E90000E94B71F0E94BF1FE0EEF0E080818160AA
:103EA0008083E8EDF0E080818F77808319BCA7EDF7
:103EB000B0E08C918E7F8C9380818F7E8083109276
:103EC000790308950F931F93CF93DF930E94B71F39
:103ED0000E94BF1FC8EDD0E088818F7788838881DA
:103EE0008068888388818F7D888319BC10927A03CB
:103EF00010927603109278031092770300EE10E090
:103F0000F80180818B7F808388818160888342E093
:103F100060E080E00E94C41EE1EEF0E080818E7FD0
:103F20008083E2EEF0E08081816080838081886020
:103F30008083F80180818E7F80838881806188837F
:103F4000DF91CF911F910F910895E8EDF0E080810E
:103F50008F7E8083E7EDF0E080818160808384E064
:103F600082BF81E0809379030E94621F0895E8ED8B
:103F7000F0E080818E7F80831092E200089510929D
:103F8000DA001092E10008951F920F920FB60F927F
:103F900011242F933F934F935F936F937F938F934E
:103FA0009F93AF93BF93EF93FF938091E10082FFC4
:103FB0000BC08091E20082FF07C08091E1008B7FFF
:103FC0008093E1000E9423228091DA0080FF19C0D3
:103FD0008091D80080FF15C08091DA008E7F809399
:103FE000DA008091D90080FF96C080E189BD82E12E
:103FF00089BD09B400FEFDCF81E080937A030E9461
:10400000091C8091E10080FF19C08091E20080FFCF
:1040100015C08091E2008E7F8093E2008091E200E3
:1040200080618093E2008091D80080628093D80004
:1040300019BC85E080937A030E941D1C8091E100E9
:1040400084FF2BC08091E20084FF27C080E189BDFE
:1040500082E189BD89B5982F917080FFFBCF809157
:10406000D8008F7D8093D8008091E1008F7E80936F
:10407000E1008091E2008F7E8093E2008091E20077
:1040800081608093E20080917603882309F449C01F
:1040900084E080937A030E94261C8091E10083FFD4
:1040A00029C08091E20083FF25C08091E100877FD5
:1040B0008093E10082E080937A03109276038091EE
:1040C000E1008E7F8093E1008091E2008E7F8093FB
:1040D000E2008091E20080618093E20042E060E0D3
:1040E00080E00E94C41E8091F00088608093F00000
:1040F0000E941A1CFF91EF91BF91AF919F918F91F8
:104100007F916F915F914F913F912F910F900FBED3
:104110000F901F90189519BC10927A030E94171CDB
:1041200070CF8091E30087FD93E090937A03B3CF43
:104130001F920F920FB60F9211242F933F934F931C
:104140005F936F937F938F939F93AF93BF93CF931F
:10415000DF93EF93FF93D091E900DF708091EC0043
:10416000C82FC17080FDC0E81092E9008091F00076
:10417000877F8093F00078940E94DC201092E90001
:104180008091F00088608093F000CD2BCF70C093B9
:10419000E900FF91EF91DF91CF91BF91AF919F9196
:1041A0008F917F916F915F914F913F912F910F90E0
:1041B0000FBE0F901F901895AAE2B0E0E2EEF0E279
:1041C0000C947C228BE793E02091F100FC01219379
:1041D000CF01F3E083389F07B9F70E94461C809116
:1041E000E80083FF1EC180917B0390917C039A308D
:1041F00008F017C1E92FF0E0E05FFC4D0C94672256
:10420000803899F0823809F00CC180917F038F705B
:10421000873008F006C18093E9008091EB0085FBB0
:10422000882780F91092E90006C080917703909169
:104230007803911182609091E800977F9093E80055
:104240008093F1001092F1008091E8008E77E5C034
:10425000882309F4D3C0823009F0E3C080917D0344
:104260008111D6C080917F038F702FEF280F2630E9
:1042700008F0D7C08093E9002091EB0020FFC8C070
:10428000933031F48091EB0080628093EB00C0C0EA
:104290009091EB0090619093EB0021E030E001C041
:1042A000220F8A95EAF72093EA001092EA008091A3
:1042B000EB008860EACF8111B4C010917D031F77B5
:1042C0008091E3008078812B8093E3008091E80067
:1042D000877F8093E8000E94F81E8091E80080FFAD
:1042E000FCCF8091E30080688093E30082E01111AD
:1042F00083E080937A0395C08058823008F091C0A3
:1043000080917D0390917E038C3D23E09207A1F57F
:1043100083E08A838AE289834FB7F894DE0113969B
:1043200020E03EE051E2E32FF0E050935700E491AB
:1043300020FF03C0E295EF703F5FEF708E2F90E09B
:10434000EA30C0F0C7968D939D932F5F243159F7C3
:104350004FBF8091E800877F8093E8006AE270E0B9
:10436000CE0101960E94071E8091E8008B77809312
:10437000E80057C0C096E7CF60917F03709180033B
:10438000AE014F5F5F4F0E94471DBC01892B09F4AE
:1043900048C09091E800977F9093E80089819A81C6
:1043A0000E94651EE1CF8038E1F58091E800877FAB
:1043B0008093E800809176038093F10045CF8111CE
:1043C00030C090917D03923060F58091E800877F46
:1043D0008093E800909376030E94F81E8091760304
:1043E000882311F084E005C08091E30087FDFACFB7
:1043F00081E080937A030E94311C13C080917D0379
:10440000813079F481E0933009F080E08093780383
:104410001092E9008091E800877F8093E8000E9475
:10442000F81E8091E80083FF0AC08091E800877F32
:104430008093E8008091EB0080628093EB00AA9665
:10444000E3E00C9498220895CF9380917A03882317
:10445000A1F0C091E900CF709091EC00892F81709C
:1044600090FD80E8C82B1092E9008091E80083FD60
:104470000E94DC20CF70C093E900CF910895AA1B61
:10448000BB1B51E107C0AA1FBB1FA617B70710F03F
:10449000A61BB70B881F991F5A95A9F78095909571
:1044A000BC01CD01089597FB072E16F4009407D0A8
:1044B00077FD09D00E943F2207FC05D03EF490957D
:1044C00081959F4F0895709561957F4F0895EE0FE8
:1044D000FF1F0590F491E02D09942F923F924F9287
:1044E0005F926F927F928F929F92AF92BF92CF9284
:1044F000DF92EF92FF920F931F93CF93DF93CDB78D
:10450000DEB7CA1BDB0B0FB6F894DEBF0FBECDBF04
:1045100009942A88398848885F846E847D848C84D5
:104520009B84AA84B984C884DF80EE80FD800C81DE
:104530001B81AA81B981CE0FD11D0FB6F894DEBFC1
:104540000FBECDBFED010895FB01DC0104C08D91CC
:104550000190801921F441505040C8F7881B990BF5
:104560000895FB01DC0102C001900D9241505040C2
:10457000D8F70895F999FECF92BD81BDF89A992791
:1045800080B50895A6E1B0E044E050E00C94F42238
:10459000A8E1B0E042E050E00C94F422262FF99913
:1045A000FECF92BD81BDF89A019700B4021639F092
:1045B0001FBA20BD0FB6F894FA9AF99A0FBE089563
:1045C0000396272F0E94CF220E94CE22252F0E94E1
:1045D000CF22242F0C94CF220196272F0E94CF2286
:1045E0000C94CE22DC01CB01FC01F999FECF06C070
:1045F000F2BDE1BDF89A319600B40D9241505040A1
:10460000B8F70895F894FFCF21042104520452040E
:10461000DF04FB0481048104060577058605860511
:10462000002128211122282111225B217C21112225
:04463000D321DF2192
:104634002802280850011E0A1401003C003C3C6F6B
:104644001B941B731B041CFF1B721B01E200E9007B
:10465400EA00B500B600B700CD008301CC008A01A2
:104664009201940121022302240225022602270238
:104674002A02B300B4006F007000818283E200E973
:1046840000EA00B500B600B700CD008301CC008A73
:104694000192019401210223022402250226022709
:1046A400022A02B300B4006F007000818283626248
:1046B400626262626262626262626262919191911A
:0E46C400910001020202020202020202020042
:00000001FF
